{
  "contractName": "ArchitectureNFT",
  "abi": [
    {
      "inputs": [
        {
          "internalType": "address",
          "name": "_marketplaceContract",
          "type": "address"
        }
      ],
      "stateMutability": "nonpayable",
      "type": "constructor"
    },
    {
      "anonymous": false,
      "inputs": [
        {
          "indexed": true,
          "internalType": "address",
          "name": "owner",
          "type": "address"
        },
        {
          "indexed": true,
          "internalType": "address",
          "name": "approved",
          "type": "address"
        },
        {
          "indexed": true,
          "internalType": "uint256",
          "name": "tokenId",
          "type": "uint256"
        }
      ],
      "name": "Approval",
      "type": "event"
    },
    {
      "anonymous": false,
      "inputs": [
        {
          "indexed": true,
          "internalType": "address",
          "name": "owner",
          "type": "address"
        },
        {
          "indexed": true,
          "internalType": "address",
          "name": "operator",
          "type": "address"
        },
        {
          "indexed": false,
          "internalType": "bool",
          "name": "approved",
          "type": "bool"
        }
      ],
      "name": "ApprovalForAll",
      "type": "event"
    },
    {
      "anonymous": false,
      "inputs": [
        {
          "indexed": false,
          "internalType": "uint256",
          "name": "_fromTokenId",
          "type": "uint256"
        },
        {
          "indexed": false,
          "internalType": "uint256",
          "name": "_toTokenId",
          "type": "uint256"
        }
      ],
      "name": "BatchMetadataUpdate",
      "type": "event"
    },
    {
      "anonymous": false,
      "inputs": [
        {
          "indexed": false,
          "internalType": "uint256",
          "name": "_tokenId",
          "type": "uint256"
        }
      ],
      "name": "MetadataUpdate",
      "type": "event"
    },
    {
      "anonymous": false,
      "inputs": [
        {
          "indexed": false,
          "internalType": "uint256",
          "name": "",
          "type": "uint256"
        }
      ],
      "name": "NFTMinted",
      "type": "event"
    },
    {
      "anonymous": false,
      "inputs": [
        {
          "indexed": true,
          "internalType": "address",
          "name": "from",
          "type": "address"
        },
        {
          "indexed": true,
          "internalType": "address",
          "name": "to",
          "type": "address"
        },
        {
          "indexed": true,
          "internalType": "uint256",
          "name": "tokenId",
          "type": "uint256"
        }
      ],
      "name": "Transfer",
      "type": "event"
    },
    {
      "inputs": [
        {
          "internalType": "address",
          "name": "to",
          "type": "address"
        },
        {
          "internalType": "uint256",
          "name": "tokenId",
          "type": "uint256"
        }
      ],
      "name": "approve",
      "outputs": [],
      "stateMutability": "nonpayable",
      "type": "function"
    },
    {
      "inputs": [
        {
          "internalType": "address",
          "name": "owner",
          "type": "address"
        }
      ],
      "name": "balanceOf",
      "outputs": [
        {
          "internalType": "uint256",
          "name": "",
          "type": "uint256"
        }
      ],
      "stateMutability": "view",
      "type": "function",
      "constant": true
    },
    {
      "inputs": [
        {
          "internalType": "uint256",
          "name": "tokenId",
          "type": "uint256"
        }
      ],
      "name": "getApproved",
      "outputs": [
        {
          "internalType": "address",
          "name": "",
          "type": "address"
        }
      ],
      "stateMutability": "view",
      "type": "function",
      "constant": true
    },
    {
      "inputs": [
        {
          "internalType": "address",
          "name": "owner",
          "type": "address"
        },
        {
          "internalType": "address",
          "name": "operator",
          "type": "address"
        }
      ],
      "name": "isApprovedForAll",
      "outputs": [
        {
          "internalType": "bool",
          "name": "",
          "type": "bool"
        }
      ],
      "stateMutability": "view",
      "type": "function",
      "constant": true
    },
    {
      "inputs": [],
      "name": "name",
      "outputs": [
        {
          "internalType": "string",
          "name": "",
          "type": "string"
        }
      ],
      "stateMutability": "view",
      "type": "function",
      "constant": true
    },
    {
      "inputs": [
        {
          "internalType": "uint256",
          "name": "tokenId",
          "type": "uint256"
        }
      ],
      "name": "ownerOf",
      "outputs": [
        {
          "internalType": "address",
          "name": "",
          "type": "address"
        }
      ],
      "stateMutability": "view",
      "type": "function",
      "constant": true
    },
    {
      "inputs": [
        {
          "internalType": "address",
          "name": "from",
          "type": "address"
        },
        {
          "internalType": "address",
          "name": "to",
          "type": "address"
        },
        {
          "internalType": "uint256",
          "name": "tokenId",
          "type": "uint256"
        }
      ],
      "name": "safeTransferFrom",
      "outputs": [],
      "stateMutability": "nonpayable",
      "type": "function"
    },
    {
      "inputs": [
        {
          "internalType": "address",
          "name": "from",
          "type": "address"
        },
        {
          "internalType": "address",
          "name": "to",
          "type": "address"
        },
        {
          "internalType": "uint256",
          "name": "tokenId",
          "type": "uint256"
        },
        {
          "internalType": "bytes",
          "name": "data",
          "type": "bytes"
        }
      ],
      "name": "safeTransferFrom",
      "outputs": [],
      "stateMutability": "nonpayable",
      "type": "function"
    },
    {
      "inputs": [
        {
          "internalType": "address",
          "name": "operator",
          "type": "address"
        },
        {
          "internalType": "bool",
          "name": "approved",
          "type": "bool"
        }
      ],
      "name": "setApprovalForAll",
      "outputs": [],
      "stateMutability": "nonpayable",
      "type": "function"
    },
    {
      "inputs": [
        {
          "internalType": "bytes4",
          "name": "interfaceId",
          "type": "bytes4"
        }
      ],
      "name": "supportsInterface",
      "outputs": [
        {
          "internalType": "bool",
          "name": "",
          "type": "bool"
        }
      ],
      "stateMutability": "view",
      "type": "function",
      "constant": true
    },
    {
      "inputs": [],
      "name": "symbol",
      "outputs": [
        {
          "internalType": "string",
          "name": "",
          "type": "string"
        }
      ],
      "stateMutability": "view",
      "type": "function",
      "constant": true
    },
    {
      "inputs": [
        {
          "internalType": "uint256",
          "name": "tokenId",
          "type": "uint256"
        }
      ],
      "name": "tokenURI",
      "outputs": [
        {
          "internalType": "string",
          "name": "",
          "type": "string"
        }
      ],
      "stateMutability": "view",
      "type": "function",
      "constant": true
    },
    {
      "inputs": [
        {
          "internalType": "address",
          "name": "from",
          "type": "address"
        },
        {
          "internalType": "address",
          "name": "to",
          "type": "address"
        },
        {
          "internalType": "uint256",
          "name": "tokenId",
          "type": "uint256"
        }
      ],
      "name": "transferFrom",
      "outputs": [],
      "stateMutability": "nonpayable",
      "type": "function"
    },
    {
      "inputs": [
        {
          "internalType": "string",
          "name": "_name",
          "type": "string"
        },
        {
          "internalType": "string",
          "name": "_category",
          "type": "string"
        },
        {
          "internalType": "string",
          "name": "_style",
          "type": "string"
        },
        {
          "internalType": "string",
          "name": "_description",
          "type": "string"
        },
        {
          "internalType": "string",
          "name": "_materialList",
          "type": "string"
        },
        {
          "internalType": "uint256",
          "name": "_cost",
          "type": "uint256"
        },
        {
          "internalType": "string",
          "name": "_tokenURI",
          "type": "string"
        }
      ],
      "name": "mint",
      "outputs": [],
      "stateMutability": "nonpayable",
      "type": "function"
    },
    {
      "inputs": [
        {
          "internalType": "uint256",
          "name": "tokenId",
          "type": "uint256"
        }
      ],
      "name": "getNFTMetadata",
      "outputs": [
        {
          "components": [
            {
              "internalType": "string",
              "name": "name",
              "type": "string"
            },
            {
              "internalType": "string",
              "name": "category",
              "type": "string"
            },
            {
              "internalType": "string",
              "name": "style",
              "type": "string"
            },
            {
              "internalType": "string",
              "name": "description",
              "type": "string"
            },
            {
              "internalType": "string",
              "name": "materialList",
              "type": "string"
            },
            {
              "internalType": "uint256",
              "name": "cost",
              "type": "uint256"
            }
          ],
          "internalType": "struct ArchitectureNFT.NFTMetadata",
          "name": "",
          "type": "tuple"
        }
      ],
      "stateMutability": "view",
      "type": "function",
      "constant": true
    }
  ],
  "bytecode": "0x60806040523480156200001157600080fd5b50604051620037103803806200371083398181016040528101906200003791906200017b565b6040518060400160405280600b81526020017f596f75724e46544e616d650000000000000000000000000000000000000000008152506040518060400160405280600481526020017f594e4654000000000000000000000000000000000000000000000000000000008152508160009081620000b4919062000427565b508060019081620000c6919062000427565b50505080600860006101000a81548173ffffffffffffffffffffffffffffffffffffffff021916908373ffffffffffffffffffffffffffffffffffffffff160217905550506200050e565b600080fd5b600073ffffffffffffffffffffffffffffffffffffffff82169050919050565b6000620001438262000116565b9050919050565b620001558162000136565b81146200016157600080fd5b50565b60008151905062000175816200014a565b92915050565b60006020828403121562000194576200019362000111565b5b6000620001a48482850162000164565b91505092915050565b600081519050919050565b7f4e487b7100000000000000000000000000000000000000000000000000000000600052604160045260246000fd5b7f4e487b7100000000000000000000000000000000000000000000000000000000600052602260045260246000fd5b600060028204905060018216806200022f57607f821691505b602082108103620002455762000244620001e7565b5b50919050565b60008190508160005260206000209050919050565b60006020601f8301049050919050565b600082821b905092915050565b600060088302620002af7fffffffffffffffffffffffffffffffffffffffffffffffffffffffffffffffff8262000270565b620002bb868362000270565b95508019841693508086168417925050509392505050565b6000819050919050565b6000819050919050565b60006200030862000302620002fc84620002d3565b620002dd565b620002d3565b9050919050565b6000819050919050565b6200032483620002e7565b6200033c62000333826200030f565b8484546200027d565b825550505050565b600090565b6200035362000344565b6200036081848462000319565b505050565b5b8181101562000388576200037c60008262000349565b60018101905062000366565b5050565b601f821115620003d757620003a1816200024b565b620003ac8462000260565b81016020851015620003bc578190505b620003d4620003cb8562000260565b83018262000365565b50505b505050565b600082821c905092915050565b6000620003fc60001984600802620003dc565b1980831691505092915050565b6000620004178383620003e9565b9150826002028217905092915050565b6200043282620001ad565b67ffffffffffffffff8111156200044e576200044d620001b8565b5b6200045a825462000216565b620004678282856200038c565b600060209050601f8311600181146200049f57600084156200048a578287015190505b62000496858262000409565b86555062000506565b601f198416620004af866200024b565b60005b82811015620004d957848901518255600182019150602085019450602081019050620004b2565b86831015620004f95784890151620004f5601f891682620003e9565b8355505b6001600288020188555050505b505050505050565b6131f2806200051e6000396000f3fe608060405234801561001057600080fd5b50600436106100f55760003560e01c80636be9a6f111610097578063b88d4fde11610066578063b88d4fde14610296578063c87b56dd146102b2578063d5c9733c146102e2578063e985e9c5146102fe576100f5565b80636be9a6f1146101fc57806370a082311461022c57806395d89b411461025c578063a22cb4651461027a576100f5565b8063095ea7b3116100d3578063095ea7b31461017857806323b872dd1461019457806342842e0e146101b05780636352211e146101cc576100f5565b806301ffc9a7146100fa57806306fdde031461012a578063081812fc14610148575b600080fd5b610114600480360381019061010f9190611ed3565b61032e565b6040516101219190611f1b565b60405180910390f35b61013261038f565b60405161013f9190611fc6565b60405180910390f35b610162600480360381019061015d919061201e565b610421565b60405161016f919061208c565b60405180910390f35b610192600480360381019061018d91906120d3565b610467565b005b6101ae60048036038101906101a99190612113565b61057e565b005b6101ca60048036038101906101c59190612113565b6105de565b005b6101e660048036038101906101e1919061201e565b6105fe565b6040516101f3919061208c565b60405180910390f35b6102166004803603810190610211919061201e565b610684565b6040516102239190612264565b60405180910390f35b61024660048036038101906102419190612286565b610995565b60405161025391906122c2565b60405180910390f35b610264610a4c565b6040516102719190611fc6565b60405180910390f35b610294600480360381019061028f9190612309565b610ade565b005b6102b060048036038101906102ab919061247e565b610af4565b005b6102cc60048036038101906102c7919061201e565b610b56565b6040516102d99190611fc6565b60405180910390f35b6102fc60048036038101906102f791906125a2565b610c68565b005b610318600480360381019061031391906126ec565b610dbd565b6040516103259190611f1b565b60405180910390f35b6000634906490660e01b7bffffffffffffffffffffffffffffffffffffffffffffffffffffffff1916827bffffffffffffffffffffffffffffffffffffffffffffffffffffffff19161480610388575061038782610e51565b5b9050919050565b60606000805461039e9061275b565b80601f01602080910402602001604051908101604052809291908181526020018280546103ca9061275b565b80156104175780601f106103ec57610100808354040283529160200191610417565b820191906000526020600020905b8154815290600101906020018083116103fa57829003601f168201915b5050505050905090565b600061042c82610f33565b6004600083815260200190815260200160002060009054906101000a900473ffffffffffffffffffffffffffffffffffffffff169050919050565b6000610472826105fe565b90508073ffffffffffffffffffffffffffffffffffffffff168373ffffffffffffffffffffffffffffffffffffffff16036104e2576040517f08c379a00000000000000000000000000000000000000000000000000000000081526004016104d9906127fe565b60405180910390fd5b8073ffffffffffffffffffffffffffffffffffffffff16610501610f7e565b73ffffffffffffffffffffffffffffffffffffffff161480610530575061052f8161052a610f7e565b610dbd565b5b61056f576040517f08c379a000000000000000000000000000000000000000000000000000000000815260040161056690612890565b60405180910390fd5b6105798383610f86565b505050565b61058f610589610f7e565b8261103f565b6105ce576040517f08c379a00000000000000000000000000000000000000000000000000000000081526004016105c590612922565b60405180910390fd5b6105d98383836110d4565b505050565b6105f983838360405180602001604052806000815250610af4565b505050565b60008061060a836113cd565b9050600073ffffffffffffffffffffffffffffffffffffffff168173ffffffffffffffffffffffffffffffffffffffff160361067b576040517f08c379a00000000000000000000000000000000000000000000000000000000081526004016106729061298e565b60405180910390fd5b80915050919050565b61068c611e31565b600960008381526020019081526020016000206040518060c00160405290816000820180546106ba9061275b565b80601f01602080910402602001604051908101604052809291908181526020018280546106e69061275b565b80156107335780601f1061070857610100808354040283529160200191610733565b820191906000526020600020905b81548152906001019060200180831161071657829003601f168201915b5050505050815260200160018201805461074c9061275b565b80601f01602080910402602001604051908101604052809291908181526020018280546107789061275b565b80156107c55780601f1061079a576101008083540402835291602001916107c5565b820191906000526020600020905b8154815290600101906020018083116107a857829003601f168201915b505050505081526020016002820180546107de9061275b565b80601f016020809104026020016040519081016040528092919081815260200182805461080a9061275b565b80156108575780601f1061082c57610100808354040283529160200191610857565b820191906000526020600020905b81548152906001019060200180831161083a57829003601f168201915b505050505081526020016003820180546108709061275b565b80601f016020809104026020016040519081016040528092919081815260200182805461089c9061275b565b80156108e95780601f106108be576101008083540402835291602001916108e9565b820191906000526020600020905b8154815290600101906020018083116108cc57829003601f168201915b505050505081526020016004820180546109029061275b565b80601f016020809104026020016040519081016040528092919081815260200182805461092e9061275b565b801561097b5780601f106109505761010080835404028352916020019161097b565b820191906000526020600020905b81548152906001019060200180831161095e57829003601f168201915b505050505081526020016005820154815250509050919050565b60008073ffffffffffffffffffffffffffffffffffffffff168273ffffffffffffffffffffffffffffffffffffffff1603610a05576040517f08c379a00000000000000000000000000000000000000000000000000000000081526004016109fc90612a20565b60405180910390fd5b600360008373ffffffffffffffffffffffffffffffffffffffff1673ffffffffffffffffffffffffffffffffffffffff168152602001908152602001600020549050919050565b606060018054610a5b9061275b565b80601f0160208091040260200160405190810160405280929190818152602001828054610a879061275b565b8015610ad45780601f10610aa957610100808354040283529160200191610ad4565b820191906000526020600020905b815481529060010190602001808311610ab757829003601f168201915b5050505050905090565b610af0610ae9610f7e565b838361140a565b5050565b610b05610aff610f7e565b8361103f565b610b44576040517f08c379a0000000000000000000000000000000000000000000000000000000008152600401610b3b90612922565b60405180910390fd5b610b5084848484611576565b50505050565b6060610b6182610f33565b6000600660008481526020019081526020016000208054610b819061275b565b80601f0160208091040260200160405190810160405280929190818152602001828054610bad9061275b565b8015610bfa5780601f10610bcf57610100808354040283529160200191610bfa565b820191906000526020600020905b815481529060010190602001808311610bdd57829003601f168201915b505050505090506000610c0b6115d2565b90506000815103610c20578192505050610c63565b600082511115610c55578082604051602001610c3d929190612a7c565b60405160208183030381529060405292505050610c63565b610c5e846115e9565b925050505b919050565b610c726007611651565b6000610c7e6007611667565b9050610c8a3382611675565b610c948183611693565b610cc1600860009054906101000a900473ffffffffffffffffffffffffffffffffffffffff166001610ade565b6040518060c0016040528089815260200188815260200187815260200186815260200185815260200184815250600960008381526020019081526020016000206000820151816000019081610d169190612c4c565b506020820151816001019081610d2c9190612c4c565b506040820151816002019081610d429190612c4c565b506060820151816003019081610d589190612c4c565b506080820151816004019081610d6e9190612c4c565b5060a082015181600501559050507fd9dc24857f317ed9abbbb42e920ede0104231eb1d3d70236a74887ffaf15986881604051610dab91906122c2565b60405180910390a15050505050505050565b6000600560008473ffffffffffffffffffffffffffffffffffffffff1673ffffffffffffffffffffffffffffffffffffffff16815260200190815260200160002060008373ffffffffffffffffffffffffffffffffffffffff1673ffffffffffffffffffffffffffffffffffffffff16815260200190815260200160002060009054906101000a900460ff16905092915050565b60007f80ac58cd000000000000000000000000000000000000000000000000000000007bffffffffffffffffffffffffffffffffffffffffffffffffffffffff1916827bffffffffffffffffffffffffffffffffffffffffffffffffffffffff19161480610f1c57507f5b5e139f000000000000000000000000000000000000000000000000000000007bffffffffffffffffffffffffffffffffffffffffffffffffffffffff1916827bffffffffffffffffffffffffffffffffffffffffffffffffffffffff1916145b80610f2c5750610f2b82611737565b5b9050919050565b610f3c816117a1565b610f7b576040517f08c379a0000000000000000000000000000000000000000000000000000000008152600401610f729061298e565b60405180910390fd5b50565b600033905090565b816004600083815260200190815260200160002060006101000a81548173ffffffffffffffffffffffffffffffffffffffff021916908373ffffffffffffffffffffffffffffffffffffffff160217905550808273ffffffffffffffffffffffffffffffffffffffff16610ff9836105fe565b73ffffffffffffffffffffffffffffffffffffffff167f8c5be1e5ebec7d5bd14f71427d1e84f3dd0314c0f7b2291e5b200ac8c7c3b92560405160405180910390a45050565b60008061104b836105fe565b90508073ffffffffffffffffffffffffffffffffffffffff168473ffffffffffffffffffffffffffffffffffffffff16148061108d575061108c8185610dbd565b5b806110cb57508373ffffffffffffffffffffffffffffffffffffffff166110b384610421565b73ffffffffffffffffffffffffffffffffffffffff16145b91505092915050565b8273ffffffffffffffffffffffffffffffffffffffff166110f4826105fe565b73ffffffffffffffffffffffffffffffffffffffff161461114a576040517f08c379a000000000000000000000000000000000000000000000000000000000815260040161114190612d90565b60405180910390fd5b600073ffffffffffffffffffffffffffffffffffffffff168273ffffffffffffffffffffffffffffffffffffffff16036111b9576040517f08c379a00000000000000000000000000000000000000000000000000000000081526004016111b090612e22565b60405180910390fd5b6111c683838360016117e2565b8273ffffffffffffffffffffffffffffffffffffffff166111e6826105fe565b73ffffffffffffffffffffffffffffffffffffffff161461123c576040517f08c379a000000000000000000000000000000000000000000000000000000000815260040161123390612d90565b60405180910390fd5b6004600082815260200190815260200160002060006101000a81549073ffffffffffffffffffffffffffffffffffffffff02191690556001600360008573ffffffffffffffffffffffffffffffffffffffff1673ffffffffffffffffffffffffffffffffffffffff168152602001908152602001600020600082825403925050819055506001600360008473ffffffffffffffffffffffffffffffffffffffff1673ffffffffffffffffffffffffffffffffffffffff16815260200190815260200160002060008282540192505081905550816002600083815260200190815260200160002060006101000a81548173ffffffffffffffffffffffffffffffffffffffff021916908373ffffffffffffffffffffffffffffffffffffffff160217905550808273ffffffffffffffffffffffffffffffffffffffff168473ffffffffffffffffffffffffffffffffffffffff167fddf252ad1be2c89b69c2b068fc378daa952ba7f163c4a11628f55a4df523b3ef60405160405180910390a46113c883838360016117e8565b505050565b60006002600083815260200190815260200160002060009054906101000a900473ffffffffffffffffffffffffffffffffffffffff169050919050565b8173ffffffffffffffffffffffffffffffffffffffff168373ffffffffffffffffffffffffffffffffffffffff1603611478576040517f08c379a000000000000000000000000000000000000000000000000000000000815260040161146f90612e8e565b60405180910390fd5b80600560008573ffffffffffffffffffffffffffffffffffffffff1673ffffffffffffffffffffffffffffffffffffffff16815260200190815260200160002060008473ffffffffffffffffffffffffffffffffffffffff1673ffffffffffffffffffffffffffffffffffffffff16815260200190815260200160002060006101000a81548160ff0219169083151502179055508173ffffffffffffffffffffffffffffffffffffffff168373ffffffffffffffffffffffffffffffffffffffff167f17307eab39ab6107e8899845ad3d59bd9653f200f220920489ca2b5937696c31836040516115699190611f1b565b60405180910390a3505050565b6115818484846110d4565b61158d848484846117ee565b6115cc576040517f08c379a00000000000000000000000000000000000000000000000000000000081526004016115c390612f20565b60405180910390fd5b50505050565b606060405180602001604052806000815250905090565b60606115f482610f33565b60006115fe6115d2565b9050600081511161161e5760405180602001604052806000815250611649565b8061162884611975565b604051602001611639929190612a7c565b6040516020818303038152906040525b915050919050565b6001816000016000828254019250508190555050565b600081600001549050919050565b61168f828260405180602001604052806000815250611a43565b5050565b61169c826117a1565b6116db576040517f08c379a00000000000000000000000000000000000000000000000000000000081526004016116d290612fb2565b60405180910390fd5b806006600084815260200190815260200160002090816116fb9190612c4c565b507ff8e1a15aba9398e019f0b49df1a4fde98ee17ae345cb5f6b5e2c27f5033e8ce78260405161172b91906122c2565b60405180910390a15050565b60007f01ffc9a7000000000000000000000000000000000000000000000000000000007bffffffffffffffffffffffffffffffffffffffffffffffffffffffff1916827bffffffffffffffffffffffffffffffffffffffffffffffffffffffff1916149050919050565b60008073ffffffffffffffffffffffffffffffffffffffff166117c3836113cd565b73ffffffffffffffffffffffffffffffffffffffff1614159050919050565b50505050565b50505050565b600061180f8473ffffffffffffffffffffffffffffffffffffffff16611a9e565b15611968578373ffffffffffffffffffffffffffffffffffffffff1663150b7a02611838610f7e565b8786866040518563ffffffff1660e01b815260040161185a9493929190613027565b6020604051808303816000875af192505050801561189657506040513d601f19601f820116820180604052508101906118939190613088565b60015b611918573d80600081146118c6576040519150601f19603f3d011682016040523d82523d6000602084013e6118cb565b606091505b506000815103611910576040517f08c379a000000000000000000000000000000000000000000000000000000000815260040161190790612f20565b60405180910390fd5b805181602001fd5b63150b7a0260e01b7bffffffffffffffffffffffffffffffffffffffffffffffffffffffff1916817bffffffffffffffffffffffffffffffffffffffffffffffffffffffff19161491505061196d565b600190505b949350505050565b60606000600161198484611ac1565b01905060008167ffffffffffffffff8111156119a3576119a2612353565b5b6040519080825280601f01601f1916602001820160405280156119d55781602001600182028036833780820191505090505b509050600082602001820190505b600115611a38578080600190039150507f3031323334353637383961626364656600000000000000000000000000000000600a86061a8153600a8581611a2c57611a2b6130b5565b5b049450600085036119e3575b819350505050919050565b611a4d8383611c14565b611a5a60008484846117ee565b611a99576040517f08c379a0000000000000000000000000000000000000000000000000000000008152600401611a9090612f20565b60405180910390fd5b505050565b6000808273ffffffffffffffffffffffffffffffffffffffff163b119050919050565b600080600090507a184f03e93ff9f4daa797ed6e38ed64bf6a1f0100000000000000008310611b1f577a184f03e93ff9f4daa797ed6e38ed64bf6a1f0100000000000000008381611b1557611b146130b5565b5b0492506040810190505b6d04ee2d6d415b85acef81000000008310611b5c576d04ee2d6d415b85acef81000000008381611b5257611b516130b5565b5b0492506020810190505b662386f26fc100008310611b8b57662386f26fc100008381611b8157611b806130b5565b5b0492506010810190505b6305f5e1008310611bb4576305f5e1008381611baa57611ba96130b5565b5b0492506008810190505b6127108310611bd9576127108381611bcf57611bce6130b5565b5b0492506004810190505b60648310611bfc5760648381611bf257611bf16130b5565b5b0492506002810190505b600a8310611c0b576001810190505b80915050919050565b600073ffffffffffffffffffffffffffffffffffffffff168273ffffffffffffffffffffffffffffffffffffffff1603611c83576040517f08c379a0000000000000000000000000000000000000000000000000000000008152600401611c7a90613130565b60405180910390fd5b611c8c816117a1565b15611ccc576040517f08c379a0000000000000000000000000000000000000000000000000000000008152600401611cc39061319c565b60405180910390fd5b611cda6000838360016117e2565b611ce3816117a1565b15611d23576040517f08c379a0000000000000000000000000000000000000000000000000000000008152600401611d1a9061319c565b60405180910390fd5b6001600360008473ffffffffffffffffffffffffffffffffffffffff1673ffffffffffffffffffffffffffffffffffffffff16815260200190815260200160002060008282540192505081905550816002600083815260200190815260200160002060006101000a81548173ffffffffffffffffffffffffffffffffffffffff021916908373ffffffffffffffffffffffffffffffffffffffff160217905550808273ffffffffffffffffffffffffffffffffffffffff16600073ffffffffffffffffffffffffffffffffffffffff167fddf252ad1be2c89b69c2b068fc378daa952ba7f163c4a11628f55a4df523b3ef60405160405180910390a4611e2d6000838360016117e8565b5050565b6040518060c001604052806060815260200160608152602001606081526020016060815260200160608152602001600081525090565b6000604051905090565b600080fd5b600080fd5b60007fffffffff0000000000000000000000000000000000000000000000000000000082169050919050565b611eb081611e7b565b8114611ebb57600080fd5b50565b600081359050611ecd81611ea7565b92915050565b600060208284031215611ee957611ee8611e71565b5b6000611ef784828501611ebe565b91505092915050565b60008115159050919050565b611f1581611f00565b82525050565b6000602082019050611f306000830184611f0c565b92915050565b600081519050919050565b600082825260208201905092915050565b60005b83811015611f70578082015181840152602081019050611f55565b60008484015250505050565b6000601f19601f8301169050919050565b6000611f9882611f36565b611fa28185611f41565b9350611fb2818560208601611f52565b611fbb81611f7c565b840191505092915050565b60006020820190508181036000830152611fe08184611f8d565b905092915050565b6000819050919050565b611ffb81611fe8565b811461200657600080fd5b50565b60008135905061201881611ff2565b92915050565b60006020828403121561203457612033611e71565b5b600061204284828501612009565b91505092915050565b600073ffffffffffffffffffffffffffffffffffffffff82169050919050565b60006120768261204b565b9050919050565b6120868161206b565b82525050565b60006020820190506120a1600083018461207d565b92915050565b6120b08161206b565b81146120bb57600080fd5b50565b6000813590506120cd816120a7565b92915050565b600080604083850312156120ea576120e9611e71565b5b60006120f8858286016120be565b925050602061210985828601612009565b9150509250929050565b60008060006060848603121561212c5761212b611e71565b5b600061213a868287016120be565b935050602061214b868287016120be565b925050604061215c86828701612009565b9150509250925092565b600082825260208201905092915050565b600061218282611f36565b61218c8185612166565b935061219c818560208601611f52565b6121a581611f7c565b840191505092915050565b6121b981611fe8565b82525050565b600060c08301600083015184820360008601526121dc8282612177565b915050602083015184820360208601526121f68282612177565b915050604083015184820360408601526122108282612177565b9150506060830151848203606086015261222a8282612177565b915050608083015184820360808601526122448282612177565b91505060a083015161225960a08601826121b0565b508091505092915050565b6000602082019050818103600083015261227e81846121bf565b905092915050565b60006020828403121561229c5761229b611e71565b5b60006122aa848285016120be565b91505092915050565b6122bc81611fe8565b82525050565b60006020820190506122d760008301846122b3565b92915050565b6122e681611f00565b81146122f157600080fd5b50565b600081359050612303816122dd565b92915050565b600080604083850312156123205761231f611e71565b5b600061232e858286016120be565b925050602061233f858286016122f4565b9150509250929050565b600080fd5b600080fd5b7f4e487b7100000000000000000000000000000000000000000000000000000000600052604160045260246000fd5b61238b82611f7c565b810181811067ffffffffffffffff821117156123aa576123a9612353565b5b80604052505050565b60006123bd611e67565b90506123c98282612382565b919050565b600067ffffffffffffffff8211156123e9576123e8612353565b5b6123f282611f7c565b9050602081019050919050565b82818337600083830152505050565b600061242161241c846123ce565b6123b3565b90508281526020810184848401111561243d5761243c61234e565b5b6124488482856123ff565b509392505050565b600082601f83011261246557612464612349565b5b813561247584826020860161240e565b91505092915050565b6000806000806080858703121561249857612497611e71565b5b60006124a6878288016120be565b94505060206124b7878288016120be565b93505060406124c887828801612009565b925050606085013567ffffffffffffffff8111156124e9576124e8611e76565b5b6124f587828801612450565b91505092959194509250565b600067ffffffffffffffff82111561251c5761251b612353565b5b61252582611f7c565b9050602081019050919050565b600061254561254084612501565b6123b3565b9050828152602081018484840111156125615761256061234e565b5b61256c8482856123ff565b509392505050565b600082601f83011261258957612588612349565b5b8135612599848260208601612532565b91505092915050565b600080600080600080600060e0888a0312156125c1576125c0611e71565b5b600088013567ffffffffffffffff8111156125df576125de611e76565b5b6125eb8a828b01612574565b975050602088013567ffffffffffffffff81111561260c5761260b611e76565b5b6126188a828b01612574565b965050604088013567ffffffffffffffff81111561263957612638611e76565b5b6126458a828b01612574565b955050606088013567ffffffffffffffff81111561266657612665611e76565b5b6126728a828b01612574565b945050608088013567ffffffffffffffff81111561269357612692611e76565b5b61269f8a828b01612574565b93505060a06126b08a828b01612009565b92505060c088013567ffffffffffffffff8111156126d1576126d0611e76565b5b6126dd8a828b01612574565b91505092959891949750929550565b6000806040838503121561270357612702611e71565b5b6000612711858286016120be565b9250506020612722858286016120be565b9150509250929050565b7f4e487b7100000000000000000000000000000000000000000000000000000000600052602260045260246000fd5b6000600282049050600182168061277357607f821691505b6020821081036127865761278561272c565b5b50919050565b7f4552433732313a20617070726f76616c20746f2063757272656e74206f776e6560008201527f7200000000000000000000000000000000000000000000000000000000000000602082015250565b60006127e8602183611f41565b91506127f38261278c565b604082019050919050565b60006020820190508181036000830152612817816127db565b9050919050565b7f4552433732313a20617070726f76652063616c6c6572206973206e6f7420746f60008201527f6b656e206f776e6572206f7220617070726f76656420666f7220616c6c000000602082015250565b600061287a603d83611f41565b91506128858261281e565b604082019050919050565b600060208201905081810360008301526128a98161286d565b9050919050565b7f4552433732313a2063616c6c6572206973206e6f7420746f6b656e206f776e6560008201527f72206f7220617070726f76656400000000000000000000000000000000000000602082015250565b600061290c602d83611f41565b9150612917826128b0565b604082019050919050565b6000602082019050818103600083015261293b816128ff565b9050919050565b7f4552433732313a20696e76616c696420746f6b656e2049440000000000000000600082015250565b6000612978601883611f41565b915061298382612942565b602082019050919050565b600060208201905081810360008301526129a78161296b565b9050919050565b7f4552433732313a2061646472657373207a65726f206973206e6f74206120766160008201527f6c6964206f776e65720000000000000000000000000000000000000000000000602082015250565b6000612a0a602983611f41565b9150612a15826129ae565b604082019050919050565b60006020820190508181036000830152612a39816129fd565b9050919050565b600081905092915050565b6000612a5682611f36565b612a608185612a40565b9350612a70818560208601611f52565b80840191505092915050565b6000612a888285612a4b565b9150612a948284612a4b565b91508190509392505050565b60008190508160005260206000209050919050565b60006020601f8301049050919050565b600082821b905092915050565b600060088302612b027fffffffffffffffffffffffffffffffffffffffffffffffffffffffffffffffff82612ac5565b612b0c8683612ac5565b95508019841693508086168417925050509392505050565b6000819050919050565b6000612b49612b44612b3f84611fe8565b612b24565b611fe8565b9050919050565b6000819050919050565b612b6383612b2e565b612b77612b6f82612b50565b848454612ad2565b825550505050565b600090565b612b8c612b7f565b612b97818484612b5a565b505050565b5b81811015612bbb57612bb0600082612b84565b600181019050612b9d565b5050565b601f821115612c0057612bd181612aa0565b612bda84612ab5565b81016020851015612be9578190505b612bfd612bf585612ab5565b830182612b9c565b50505b505050565b600082821c905092915050565b6000612c2360001984600802612c05565b1980831691505092915050565b6000612c3c8383612c12565b9150826002028217905092915050565b612c5582611f36565b67ffffffffffffffff811115612c6e57612c6d612353565b5b612c78825461275b565b612c83828285612bbf565b600060209050601f831160018114612cb65760008415612ca4578287015190505b612cae8582612c30565b865550612d16565b601f198416612cc486612aa0565b60005b82811015612cec57848901518255600182019150602085019450602081019050612cc7565b86831015612d095784890151612d05601f891682612c12565b8355505b6001600288020188555050505b505050505050565b7f4552433732313a207472616e736665722066726f6d20696e636f72726563742060008201527f6f776e6572000000000000000000000000000000000000000000000000000000602082015250565b6000612d7a602583611f41565b9150612d8582612d1e565b604082019050919050565b60006020820190508181036000830152612da981612d6d565b9050919050565b7f4552433732313a207472616e7366657220746f20746865207a65726f2061646460008201527f7265737300000000000000000000000000000000000000000000000000000000602082015250565b6000612e0c602483611f41565b9150612e1782612db0565b604082019050919050565b60006020820190508181036000830152612e3b81612dff565b9050919050565b7f4552433732313a20617070726f766520746f2063616c6c657200000000000000600082015250565b6000612e78601983611f41565b9150612e8382612e42565b602082019050919050565b60006020820190508181036000830152612ea781612e6b565b9050919050565b7f4552433732313a207472616e7366657220746f206e6f6e20455243373231526560008201527f63656976657220696d706c656d656e7465720000000000000000000000000000602082015250565b6000612f0a603283611f41565b9150612f1582612eae565b604082019050919050565b60006020820190508181036000830152612f3981612efd565b9050919050565b7f45524337323155524953746f726167653a2055524920736574206f66206e6f6e60008201527f6578697374656e7420746f6b656e000000000000000000000000000000000000602082015250565b6000612f9c602e83611f41565b9150612fa782612f40565b604082019050919050565b60006020820190508181036000830152612fcb81612f8f565b9050919050565b600081519050919050565b600082825260208201905092915050565b6000612ff982612fd2565b6130038185612fdd565b9350613013818560208601611f52565b61301c81611f7c565b840191505092915050565b600060808201905061303c600083018761207d565b613049602083018661207d565b61305660408301856122b3565b81810360608301526130688184612fee565b905095945050505050565b60008151905061308281611ea7565b92915050565b60006020828403121561309e5761309d611e71565b5b60006130ac84828501613073565b91505092915050565b7f4e487b7100000000000000000000000000000000000000000000000000000000600052601260045260246000fd5b7f4552433732313a206d696e7420746f20746865207a65726f2061646472657373600082015250565b600061311a602083611f41565b9150613125826130e4565b602082019050919050565b600060208201905081810360008301526131498161310d565b9050919050565b7f4552433732313a20746f6b656e20616c7265616479206d696e74656400000000600082015250565b6000613186601c83611f41565b915061319182613150565b602082019050919050565b600060208201905081810360008301526131b581613179565b905091905056fea2646970667358221220848c2d1e1d85a353a915b3901ced3979d0b92b8f6bcdda8db06979842b3f20d664736f6c63430008130033",
  "immutableReferences": {},
  "source": "// SPDX-License-Identifier: MIT\npragma solidity 0.8.19;\n\nimport \"@openzeppelin/contracts/token/ERC721/ERC721.sol\";\nimport \"@openzeppelin/contracts/token/ERC721/extensions/ERC721URIStorage.sol\";\nimport \"@openzeppelin/contracts/utils/Counters.sol\";\n\ncontract ArchitectureNFT is ERC721URIStorage {\n    using Counters for Counters.Counter;\n    Counters.Counter private _tokenIds;\n    address marketplaceContract;\n    event NFTMinted(uint256);\n\n    struct NFTMetadata {\n        string name;\n        string category;\n        string style;\n        string description;\n        string materialList;\n        uint256 cost;\n    }\n\n    mapping(uint256 => NFTMetadata) private _nftMetadata;\n\n    constructor(address _marketplaceContract) ERC721(\"YourNFTName\", \"YNFT\") {\n        marketplaceContract = _marketplaceContract;\n    }\n\n    function mint(\n        string memory _name,\n        string memory _category,\n        string memory _style,\n        string memory _description,\n        string memory _materialList,\n        uint256 _cost,\n        string memory _tokenURI\n    ) public {\n        _tokenIds.increment();\n        uint256 newTokenId = _tokenIds.current();\n        _safeMint(msg.sender, newTokenId);\n        _setTokenURI(newTokenId, _tokenURI);\n        setApprovalForAll(marketplaceContract, true);\n\n        // Store the metadata of the NFT\n        _nftMetadata[newTokenId] = NFTMetadata(\n            _name,\n            _category,\n            _style,\n            _description,\n            _materialList,\n            _cost\n        );\n\n        emit NFTMinted(newTokenId);\n    }\n\n    // Get the metadata of a specific NFT\n    function getNFTMetadata(uint256 tokenId)\n        public\n        view\n        returns (NFTMetadata memory)\n    {\n        return _nftMetadata[tokenId];\n    }\n}\n",
  "sourcePath": "/home/benji/dev/CoursAlyra/nft-marketplace/contracts/ethereum/ArchitectureNFT.sol",
  "compiler": {
    "name": "solc",
    "version": "0.8.19+commit.7dd6d404.Emscripten.clang"
  },
  "schemaVersion": "3.4.14",
  "updatedAt": "2023-07-25T11:50:22.718Z",
  "networkType": "ethereum",
  "devdoc": {
    "events": {
      "Approval(address,address,uint256)": {
        "details": "Emitted when `owner` enables `approved` to manage the `tokenId` token."
      },
      "ApprovalForAll(address,address,bool)": {
        "details": "Emitted when `owner` enables or disables (`approved`) `operator` to manage all of its assets."
      },
      "BatchMetadataUpdate(uint256,uint256)": {
        "details": "This event emits when the metadata of a range of tokens is changed. So that the third-party platforms such as NFT market could timely update the images and related attributes of the NFTs."
      },
      "MetadataUpdate(uint256)": {
        "details": "This event emits when the metadata of a token is changed. So that the third-party platforms such as NFT market could timely update the images and related attributes of the NFT."
      },
      "Transfer(address,address,uint256)": {
        "details": "Emitted when `tokenId` token is transferred from `from` to `to`."
      }
    },
    "kind": "dev",
    "methods": {
      "approve(address,uint256)": {
        "details": "See {IERC721-approve}."
      },
      "balanceOf(address)": {
        "details": "See {IERC721-balanceOf}."
      },
      "getApproved(uint256)": {
        "details": "See {IERC721-getApproved}."
      },
      "isApprovedForAll(address,address)": {
        "details": "See {IERC721-isApprovedForAll}."
      },
      "name()": {
        "details": "See {IERC721Metadata-name}."
      },
      "ownerOf(uint256)": {
        "details": "See {IERC721-ownerOf}."
      },
      "safeTransferFrom(address,address,uint256)": {
        "details": "See {IERC721-safeTransferFrom}."
      },
      "safeTransferFrom(address,address,uint256,bytes)": {
        "details": "See {IERC721-safeTransferFrom}."
      },
      "setApprovalForAll(address,bool)": {
        "details": "See {IERC721-setApprovalForAll}."
      },
      "supportsInterface(bytes4)": {
        "details": "See {IERC165-supportsInterface}"
      },
      "symbol()": {
        "details": "See {IERC721Metadata-symbol}."
      },
      "tokenURI(uint256)": {
        "details": "See {IERC721Metadata-tokenURI}."
      },
      "transferFrom(address,address,uint256)": {
        "details": "See {IERC721-transferFrom}."
      }
    },
    "version": 1
  },
  "userdoc": {
    "kind": "user",
    "methods": {},
    "version": 1
  }
}