{
  "contractName": "Marketplace",
  "abi": [
    {
      "inputs": [],
      "stateMutability": "nonpayable",
      "type": "constructor"
    },
    {
      "anonymous": false,
      "inputs": [
        {
          "indexed": false,
          "internalType": "address",
          "name": "nftContract",
          "type": "address"
        },
        {
          "indexed": false,
          "internalType": "uint256",
          "name": "tokenId",
          "type": "uint256"
        },
        {
          "indexed": false,
          "internalType": "address",
          "name": "seller",
          "type": "address"
        },
        {
          "indexed": false,
          "internalType": "address",
          "name": "owner",
          "type": "address"
        },
        {
          "indexed": false,
          "internalType": "uint256",
          "name": "price",
          "type": "uint256"
        }
      ],
      "name": "NFTListed",
      "type": "event"
    },
    {
      "anonymous": false,
      "inputs": [
        {
          "indexed": false,
          "internalType": "address",
          "name": "nftContract",
          "type": "address"
        },
        {
          "indexed": false,
          "internalType": "uint256",
          "name": "tokenId",
          "type": "uint256"
        },
        {
          "indexed": false,
          "internalType": "address",
          "name": "seller",
          "type": "address"
        },
        {
          "indexed": false,
          "internalType": "address",
          "name": "owner",
          "type": "address"
        },
        {
          "indexed": false,
          "internalType": "uint256",
          "name": "price",
          "type": "uint256"
        }
      ],
      "name": "NFTSold",
      "type": "event"
    },
    {
      "anonymous": false,
      "inputs": [
        {
          "indexed": true,
          "internalType": "address",
          "name": "userAddress",
          "type": "address"
        },
        {
          "indexed": false,
          "internalType": "string",
          "name": "profileType",
          "type": "string"
        }
      ],
      "name": "UserAuthenticated",
      "type": "event"
    },
    {
      "anonymous": false,
      "inputs": [
        {
          "indexed": false,
          "internalType": "uint256",
          "name": "amount",
          "type": "uint256"
        }
      ],
      "name": "Withdrawn",
      "type": "event"
    },
    {
      "inputs": [],
      "name": "LISTING_FEE",
      "outputs": [
        {
          "internalType": "uint256",
          "name": "",
          "type": "uint256"
        }
      ],
      "stateMutability": "view",
      "type": "function",
      "constant": true
    },
    {
      "inputs": [
        {
          "internalType": "address",
          "name": "",
          "type": "address"
        }
      ],
      "name": "architects",
      "outputs": [
        {
          "internalType": "string",
          "name": "name",
          "type": "string"
        },
        {
          "internalType": "string",
          "name": "surname",
          "type": "string"
        },
        {
          "internalType": "string",
          "name": "country",
          "type": "string"
        },
        {
          "internalType": "string",
          "name": "education",
          "type": "string"
        },
        {
          "internalType": "string",
          "name": "experience",
          "type": "string"
        },
        {
          "internalType": "string",
          "name": "socialMediaUrl",
          "type": "string"
        },
        {
          "internalType": "string",
          "name": "profileName",
          "type": "string"
        },
        {
          "internalType": "string",
          "name": "collectionName",
          "type": "string"
        },
        {
          "internalType": "string",
          "name": "collectionSymbol",
          "type": "string"
        }
      ],
      "stateMutability": "view",
      "type": "function",
      "constant": true
    },
    {
      "inputs": [
        {
          "internalType": "address",
          "name": "",
          "type": "address"
        }
      ],
      "name": "clients",
      "outputs": [
        {
          "internalType": "string",
          "name": "name",
          "type": "string"
        },
        {
          "internalType": "string",
          "name": "surname",
          "type": "string"
        },
        {
          "internalType": "string",
          "name": "country",
          "type": "string"
        },
        {
          "internalType": "string",
          "name": "profileName",
          "type": "string"
        }
      ],
      "stateMutability": "view",
      "type": "function",
      "constant": true
    },
    {
      "inputs": [
        {
          "internalType": "string",
          "name": "",
          "type": "string"
        }
      ],
      "name": "profileNames",
      "outputs": [
        {
          "internalType": "address",
          "name": "",
          "type": "address"
        }
      ],
      "stateMutability": "view",
      "type": "function",
      "constant": true
    },
    {
      "inputs": [],
      "name": "resetProfiles",
      "outputs": [],
      "stateMutability": "nonpayable",
      "type": "function"
    },
    {
      "inputs": [],
      "name": "authenticateUser",
      "outputs": [],
      "stateMutability": "nonpayable",
      "type": "function"
    },
    {
      "inputs": [
        {
          "internalType": "string",
          "name": "_name",
          "type": "string"
        },
        {
          "internalType": "string",
          "name": "_surname",
          "type": "string"
        },
        {
          "internalType": "string",
          "name": "_country",
          "type": "string"
        },
        {
          "internalType": "string",
          "name": "_education",
          "type": "string"
        },
        {
          "internalType": "string",
          "name": "_experience",
          "type": "string"
        },
        {
          "internalType": "string",
          "name": "_socialMediaUrl",
          "type": "string"
        },
        {
          "internalType": "string",
          "name": "_profileName",
          "type": "string"
        },
        {
          "internalType": "string",
          "name": "_collectionName",
          "type": "string"
        },
        {
          "internalType": "string",
          "name": "_collectionSymbol",
          "type": "string"
        }
      ],
      "name": "createArchitectProfile",
      "outputs": [],
      "stateMutability": "nonpayable",
      "type": "function"
    },
    {
      "inputs": [
        {
          "internalType": "string",
          "name": "_name",
          "type": "string"
        },
        {
          "internalType": "string",
          "name": "_surname",
          "type": "string"
        },
        {
          "internalType": "string",
          "name": "_country",
          "type": "string"
        },
        {
          "internalType": "string",
          "name": "_profileName",
          "type": "string"
        }
      ],
      "name": "createClientProfile",
      "outputs": [],
      "stateMutability": "nonpayable",
      "type": "function"
    },
    {
      "inputs": [
        {
          "internalType": "address",
          "name": "_nftContract",
          "type": "address"
        },
        {
          "internalType": "uint256",
          "name": "_tokenId",
          "type": "uint256"
        },
        {
          "internalType": "uint256",
          "name": "_price",
          "type": "uint256"
        }
      ],
      "name": "listNft",
      "outputs": [],
      "stateMutability": "payable",
      "type": "function",
      "payable": true
    },
    {
      "inputs": [
        {
          "internalType": "address",
          "name": "_nftContract",
          "type": "address"
        },
        {
          "internalType": "uint256",
          "name": "_tokenId",
          "type": "uint256"
        }
      ],
      "name": "buyNft",
      "outputs": [],
      "stateMutability": "payable",
      "type": "function",
      "payable": true
    },
    {
      "inputs": [
        {
          "internalType": "address",
          "name": "_nftContract",
          "type": "address"
        },
        {
          "internalType": "uint256",
          "name": "_tokenId",
          "type": "uint256"
        },
        {
          "internalType": "uint256",
          "name": "_price",
          "type": "uint256"
        }
      ],
      "name": "resellNft",
      "outputs": [],
      "stateMutability": "payable",
      "type": "function",
      "payable": true
    },
    {
      "inputs": [],
      "name": "withdrawContractBalance",
      "outputs": [],
      "stateMutability": "nonpayable",
      "type": "function"
    },
    {
      "inputs": [],
      "name": "getListingFee",
      "outputs": [
        {
          "internalType": "uint256",
          "name": "",
          "type": "uint256"
        }
      ],
      "stateMutability": "view",
      "type": "function",
      "constant": true
    },
    {
      "inputs": [],
      "name": "getListedNfts",
      "outputs": [
        {
          "components": [
            {
              "internalType": "address",
              "name": "nftContract",
              "type": "address"
            },
            {
              "internalType": "uint256",
              "name": "tokenId",
              "type": "uint256"
            },
            {
              "internalType": "address payable",
              "name": "seller",
              "type": "address"
            },
            {
              "internalType": "address payable",
              "name": "owner",
              "type": "address"
            },
            {
              "internalType": "uint256",
              "name": "price",
              "type": "uint256"
            },
            {
              "internalType": "bool",
              "name": "listed",
              "type": "bool"
            }
          ],
          "internalType": "struct Marketplace.NFT[]",
          "name": "",
          "type": "tuple[]"
        }
      ],
      "stateMutability": "view",
      "type": "function",
      "constant": true
    },
    {
      "inputs": [],
      "name": "getMyNfts",
      "outputs": [
        {
          "components": [
            {
              "internalType": "address",
              "name": "nftContract",
              "type": "address"
            },
            {
              "internalType": "uint256",
              "name": "tokenId",
              "type": "uint256"
            },
            {
              "internalType": "address payable",
              "name": "seller",
              "type": "address"
            },
            {
              "internalType": "address payable",
              "name": "owner",
              "type": "address"
            },
            {
              "internalType": "uint256",
              "name": "price",
              "type": "uint256"
            },
            {
              "internalType": "bool",
              "name": "listed",
              "type": "bool"
            }
          ],
          "internalType": "struct Marketplace.NFT[]",
          "name": "",
          "type": "tuple[]"
        }
      ],
      "stateMutability": "view",
      "type": "function",
      "constant": true
    },
    {
      "inputs": [],
      "name": "getMyListedNfts",
      "outputs": [
        {
          "components": [
            {
              "internalType": "address",
              "name": "nftContract",
              "type": "address"
            },
            {
              "internalType": "uint256",
              "name": "tokenId",
              "type": "uint256"
            },
            {
              "internalType": "address payable",
              "name": "seller",
              "type": "address"
            },
            {
              "internalType": "address payable",
              "name": "owner",
              "type": "address"
            },
            {
              "internalType": "uint256",
              "name": "price",
              "type": "uint256"
            },
            {
              "internalType": "bool",
              "name": "listed",
              "type": "bool"
            }
          ],
          "internalType": "struct Marketplace.NFT[]",
          "name": "",
          "type": "tuple[]"
        }
      ],
      "stateMutability": "view",
      "type": "function",
      "constant": true
    },
    {
      "inputs": [
        {
          "internalType": "address",
          "name": "clientAddress",
          "type": "address"
        }
      ],
      "name": "getClientNfts",
      "outputs": [
        {
          "components": [
            {
              "internalType": "address",
              "name": "nftContract",
              "type": "address"
            },
            {
              "internalType": "uint256",
              "name": "tokenId",
              "type": "uint256"
            },
            {
              "internalType": "address payable",
              "name": "seller",
              "type": "address"
            },
            {
              "internalType": "address payable",
              "name": "owner",
              "type": "address"
            },
            {
              "internalType": "uint256",
              "name": "price",
              "type": "uint256"
            },
            {
              "internalType": "bool",
              "name": "listed",
              "type": "bool"
            }
          ],
          "internalType": "struct Marketplace.NFT[]",
          "name": "",
          "type": "tuple[]"
        }
      ],
      "stateMutability": "view",
      "type": "function",
      "constant": true
    },
    {
      "inputs": [
        {
          "internalType": "address",
          "name": "clientAddress",
          "type": "address"
        }
      ],
      "name": "getClientListedNfts",
      "outputs": [
        {
          "components": [
            {
              "internalType": "address",
              "name": "nftContract",
              "type": "address"
            },
            {
              "internalType": "uint256",
              "name": "tokenId",
              "type": "uint256"
            },
            {
              "internalType": "address payable",
              "name": "seller",
              "type": "address"
            },
            {
              "internalType": "address payable",
              "name": "owner",
              "type": "address"
            },
            {
              "internalType": "uint256",
              "name": "price",
              "type": "uint256"
            },
            {
              "internalType": "bool",
              "name": "listed",
              "type": "bool"
            }
          ],
          "internalType": "struct Marketplace.NFT[]",
          "name": "",
          "type": "tuple[]"
        }
      ],
      "stateMutability": "view",
      "type": "function",
      "constant": true
    },
    {
      "inputs": [],
      "name": "getContractBalance",
      "outputs": [
        {
          "internalType": "uint256",
          "name": "",
          "type": "uint256"
        }
      ],
      "stateMutability": "view",
      "type": "function",
      "constant": true
    }
  ],
  "bytecode": "0x6080604052655af3107a400060035534801561001a57600080fd5b50600160008190555033600460006101000a81548173ffffffffffffffffffffffffffffffffffffffff021916908373ffffffffffffffffffffffffffffffffffffffff16021790555061419e806100736000396000f3fe6080604052600436106101135760003560e01c806361eed2a9116100a0578063b8fe6abe11610064578063b8fe6abe14610361578063be1e43af1461038c578063bfab3db9146103d1578063c922b17c146103e8578063e36cfd241461040457610113565b806361eed2a9146102655780636f9fb98a146102a5578063822e9d5b146102d05780638d6cb3fb1461030d578063a96a13641461033857610113565b80632b86ae38116100e75780632b86ae38146101c257806334f5b624146101ed5780633b724c541461020957806343471a4c146102205780634ddf4f8f1461024957610113565b80625ce66f14610118578063021b8b661461012f578063047b07bf1461016c5780631f4cc4db14610197575b600080fd5b34801561012457600080fd5b5061012d610441565b005b34801561013b57600080fd5b5061015660048036038101906101519190612e13565b6105d1565b6040516101639190612fce565b60405180910390f35b34801561017857600080fd5b5061018161099d565b60405161018e9190612fce565b60405180910390f35b3480156101a357600080fd5b506101ac610cd0565b6040516101b99190612fce565b60405180910390f35b3480156101ce57600080fd5b506101d7611075565b6040516101e49190612fff565b60405180910390f35b61020760048036038101906102029190613046565b61107b565b005b34801561021557600080fd5b5061021e611293565b005b34801561022c57600080fd5b50610247600480360381019061024291906131df565b611549565b005b610263600480360381019061025e91906133a5565b61168d565b005b34801561027157600080fd5b5061028c60048036038101906102879190612e13565b6118b5565b60405161029c9493929190613464565b60405180910390f35b3480156102b157600080fd5b506102ba611b05565b6040516102c79190612fff565b60405180910390f35b3480156102dc57600080fd5b506102f760048036038101906102f29190612e13565b611b0d565b6040516103049190612fce565b60405180910390f35b34801561031957600080fd5b50610322611e85565b60405161032f9190612fce565b60405180910390f35b34801561034457600080fd5b5061035f600480360381019061035a91906134c5565b6120ed565b005b34801561036d57600080fd5b506103766121d2565b6040516103839190612fff565b60405180910390f35b34801561039857600080fd5b506103b360048036038101906103ae9190612e13565b6121dc565b6040516103c89998979695949392919061359c565b60405180910390f35b3480156103dd57600080fd5b506103e66126f2565b005b61040260048036038101906103fd9190613046565b61282a565b005b34801561041057600080fd5b5061042b60048036038101906104269190613668565b612b7a565b60405161043891906136c0565b60405180910390f35b600033905060006040518060200160405280600081525090506000600660008473ffffffffffffffffffffffffffffffffffffffff1673ffffffffffffffffffffffffffffffffffffffff16815260200190815260200160002060060180546104a99061370a565b905011156104ee576040518060400160405280600981526020017f6172636869746563740000000000000000000000000000000000000000000000815250905061057f565b6000600760008473ffffffffffffffffffffffffffffffffffffffff1673ffffffffffffffffffffffffffffffffffffffff168152602001908152602001600020600301805461053d9061370a565b9050111561057e576040518060400160405280600681526020017f636c69656e74000000000000000000000000000000000000000000000000000081525090505b5b8173ffffffffffffffffffffffffffffffffffffffff167fcc056e302790f099f0ad7ff9d8072d8cae658c1fe0fa3b4d34ad04a9d47fdbf1826040516105c5919061373b565b60405180910390a25050565b60606000600760008473ffffffffffffffffffffffffffffffffffffffff1673ffffffffffffffffffffffffffffffffffffffff168152602001908152602001600020905060008160030180546106279061370a565b905011610669576040517f08c379a0000000000000000000000000000000000000000000000000000000008152600401610660906137a9565b60405180910390fd5b60006106756002612bc3565b90506000805b8281101561071a578573ffffffffffffffffffffffffffffffffffffffff16600560006001846106ab91906137f8565b815260200190815260200160002060030160009054906101000a900473ffffffffffffffffffffffffffffffffffffffff1673ffffffffffffffffffffffffffffffffffffffff16036107075781806107039061382c565b9250505b80806107129061382c565b91505061067b565b5060008167ffffffffffffffff811115610737576107366130b4565b5b60405190808252806020026020018201604052801561077057816020015b61075d612ca9565b8152602001906001900390816107555790505b5090506000805b8481101561098f578773ffffffffffffffffffffffffffffffffffffffff16600560006001846107a791906137f8565b815260200190815260200160002060030160009054906101000a900473ffffffffffffffffffffffffffffffffffffffff1673ffffffffffffffffffffffffffffffffffffffff160361097c576005600060018361080591906137f8565b81526020019081526020016000206040518060c00160405290816000820160009054906101000a900473ffffffffffffffffffffffffffffffffffffffff1673ffffffffffffffffffffffffffffffffffffffff1673ffffffffffffffffffffffffffffffffffffffff168152602001600182015481526020016002820160009054906101000a900473ffffffffffffffffffffffffffffffffffffffff1673ffffffffffffffffffffffffffffffffffffffff1673ffffffffffffffffffffffffffffffffffffffff1681526020016003820160009054906101000a900473ffffffffffffffffffffffffffffffffffffffff1673ffffffffffffffffffffffffffffffffffffffff1673ffffffffffffffffffffffffffffffffffffffff168152602001600482015481526020016005820160009054906101000a900460ff16151515158152505083838151811061096257610961613874565b5b602002602001018190525081806109789061382c565b9250505b80806109879061382c565b915050610777565b508195505050505050919050565b606060006109ab6002612bc3565b90506000805b82811015610a50573373ffffffffffffffffffffffffffffffffffffffff16600560006001846109e191906137f8565b815260200190815260200160002060030160009054906101000a900473ffffffffffffffffffffffffffffffffffffffff1673ffffffffffffffffffffffffffffffffffffffff1603610a3d578180610a399061382c565b9250505b8080610a489061382c565b9150506109b1565b5060008167ffffffffffffffff811115610a6d57610a6c6130b4565b5b604051908082528060200260200182016040528015610aa657816020015b610a93612ca9565b815260200190600190039081610a8b5790505b5090506000805b84811015610cc5573373ffffffffffffffffffffffffffffffffffffffff1660056000600184610add91906137f8565b815260200190815260200160002060030160009054906101000a900473ffffffffffffffffffffffffffffffffffffffff1673ffffffffffffffffffffffffffffffffffffffff1603610cb25760056000600183610b3b91906137f8565b81526020019081526020016000206040518060c00160405290816000820160009054906101000a900473ffffffffffffffffffffffffffffffffffffffff1673ffffffffffffffffffffffffffffffffffffffff1673ffffffffffffffffffffffffffffffffffffffff168152602001600182015481526020016002820160009054906101000a900473ffffffffffffffffffffffffffffffffffffffff1673ffffffffffffffffffffffffffffffffffffffff1673ffffffffffffffffffffffffffffffffffffffff1681526020016003820160009054906101000a900473ffffffffffffffffffffffffffffffffffffffff1673ffffffffffffffffffffffffffffffffffffffff1673ffffffffffffffffffffffffffffffffffffffff168152602001600482015481526020016005820160009054906101000a900460ff161515151581525050838381518110610c9857610c97613874565b5b60200260200101819052508180610cae9061382c565b9250505b8080610cbd9061382c565b915050610aad565b508194505050505090565b60606000610cde6002612bc3565b90506000805b82811015610dbc573373ffffffffffffffffffffffffffffffffffffffff1660056000600184610d1491906137f8565b815260200190815260200160002060020160009054906101000a900473ffffffffffffffffffffffffffffffffffffffff1673ffffffffffffffffffffffffffffffffffffffff16148015610d95575060056000600183610d7591906137f8565b815260200190815260200160002060050160009054906101000a900460ff165b15610da9578180610da59061382c565b9250505b8080610db49061382c565b915050610ce4565b5060008167ffffffffffffffff811115610dd957610dd86130b4565b5b604051908082528060200260200182016040528015610e1257816020015b610dff612ca9565b815260200190600190039081610df75790505b5090506000805b8481101561106a573373ffffffffffffffffffffffffffffffffffffffff1660056000600184610e4991906137f8565b815260200190815260200160002060020160009054906101000a900473ffffffffffffffffffffffffffffffffffffffff1673ffffffffffffffffffffffffffffffffffffffff16148015610eca575060056000600183610eaa91906137f8565b815260200190815260200160002060050160009054906101000a900460ff165b156110575760056000600183610ee091906137f8565b81526020019081526020016000206040518060c00160405290816000820160009054906101000a900473ffffffffffffffffffffffffffffffffffffffff1673ffffffffffffffffffffffffffffffffffffffff1673ffffffffffffffffffffffffffffffffffffffff168152602001600182015481526020016002820160009054906101000a900473ffffffffffffffffffffffffffffffffffffffff1673ffffffffffffffffffffffffffffffffffffffff1673ffffffffffffffffffffffffffffffffffffffff1681526020016003820160009054906101000a900473ffffffffffffffffffffffffffffffffffffffff1673ffffffffffffffffffffffffffffffffffffffff1673ffffffffffffffffffffffffffffffffffffffff168152602001600482015481526020016005820160009054906101000a900460ff16151515158152505083838151811061103d5761103c613874565b5b602002602001018190525081806110539061382c565b9250505b80806110629061382c565b915050610e19565b508194505050505090565b60035481565b611083612bd1565b600081116110c6576040517f08c379a00000000000000000000000000000000000000000000000000000000081526004016110bd906138ef565b60405180910390fd5b600354341461110a576040517f08c379a00000000000000000000000000000000000000000000000000000000081526004016111019061395b565b60405180910390fd5b8273ffffffffffffffffffffffffffffffffffffffff166323b872dd3330856040518463ffffffff1660e01b81526004016111479392919061397b565b600060405180830381600087803b15801561116157600080fd5b505af1158015611175573d6000803e3d6000fd5b505050506000600560008481526020019081526020016000209050338160020160006101000a81548173ffffffffffffffffffffffffffffffffffffffff021916908373ffffffffffffffffffffffffffffffffffffffff160217905550308160030160006101000a81548173ffffffffffffffffffffffffffffffffffffffff021916908373ffffffffffffffffffffffffffffffffffffffff16021790555060018160050160006101000a81548160ff0219169083151502179055508181600401819055506112466001612c20565b7fa0c6c0d02d86fdacecbaa5fdf5894bab204e31a778250474108540733a9b8d19848433308660405161127d9594939291906139b2565b60405180910390a15061128e612c7c565b505050565b600460009054906101000a900473ffffffffffffffffffffffffffffffffffffffff1673ffffffffffffffffffffffffffffffffffffffff163373ffffffffffffffffffffffffffffffffffffffff1614611323576040517f08c379a000000000000000000000000000000000000000000000000000000000815260040161131a90613a77565b60405180910390fd5b60005b6113306002612bc3565b81101561153257600660006005600060018561134c91906137f8565b815260200190815260200160002060030160009054906101000a900473ffffffffffffffffffffffffffffffffffffffff1673ffffffffffffffffffffffffffffffffffffffff1673ffffffffffffffffffffffffffffffffffffffff168152602001908152602001600020600080820160006113c99190612d23565b6001820160006113d99190612d23565b6002820160006113e99190612d23565b6003820160006113f99190612d23565b6004820160006114099190612d23565b6005820160006114199190612d23565b6006820160006114299190612d23565b6007820160006114399190612d23565b6008820160006114499190612d23565b600b820160006114599190612d63565b5050600760006005600060018561147091906137f8565b815260200190815260200160002060030160009054906101000a900473ffffffffffffffffffffffffffffffffffffffff1673ffffffffffffffffffffffffffffffffffffffff1673ffffffffffffffffffffffffffffffffffffffff168152602001908152602001600020600080820160006114ed9190612d23565b6001820160006114fd9190612d23565b60028201600061150d9190612d23565b60038201600061151d9190612d23565b5050808061152a9061382c565b915050611326565b5061153d6002612c86565b6115476001612c86565b565b6000600660003373ffffffffffffffffffffffffffffffffffffffff1673ffffffffffffffffffffffffffffffffffffffff1681526020019081526020016000209050600081600601805461159d9061370a565b9050146115df576040517f08c379a00000000000000000000000000000000000000000000000000000000081526004016115d690613ae3565b60405180910390fd5b898160000190816115f09190613caf565b50888160010190816116029190613caf565b50878160020190816116149190613caf565b50868160030190816116269190613caf565b50858160040190816116389190613caf565b508481600501908161164a9190613caf565b508381600601908161165c9190613caf565b508281600701908161166e9190613caf565b50818160080190816116809190613caf565b5050505050505050505050565b611695612bd1565b600060056000838152602001908152602001600020905080600401543410156116f3576040517f08c379a00000000000000000000000000000000000000000000000000000000081526004016116ea90613df3565b60405180910390fd5b60003390508160020160009054906101000a900473ffffffffffffffffffffffffffffffffffffffff1673ffffffffffffffffffffffffffffffffffffffff166108fc349081150290604051600060405180830381858888f19350505050158015611762573d6000803e3d6000fd5b508373ffffffffffffffffffffffffffffffffffffffff166323b872dd308385600101546040518463ffffffff1660e01b81526004016117a493929190613e68565b600060405180830381600087803b1580156117be57600080fd5b505af11580156117d2573d6000803e3d6000fd5b50505050808260030160006101000a81548173ffffffffffffffffffffffffffffffffffffffff021916908373ffffffffffffffffffffffffffffffffffffffff16021790555060008260050160006101000a81548160ff0219169083151502179055506118406001612c93565b7f16f1dbd97e6bf646d429ed186cce832f1f7fd9907814293b83181e9970ab7bd28483600101548460020160009054906101000a900473ffffffffffffffffffffffffffffffffffffffff16843460405161189f959493929190613e9f565b60405180910390a150506118b1612c7c565b5050565b60076020528060005260406000206000915090508060000180546118d89061370a565b80601f01602080910402602001604051908101604052809291908181526020018280546119049061370a565b80156119515780601f1061192657610100808354040283529160200191611951565b820191906000526020600020905b81548152906001019060200180831161193457829003601f168201915b5050505050908060010180546119669061370a565b80601f01602080910402602001604051908101604052809291908181526020018280546119929061370a565b80156119df5780601f106119b4576101008083540402835291602001916119df565b820191906000526020600020905b8154815290600101906020018083116119c257829003601f168201915b5050505050908060020180546119f49061370a565b80601f0160208091040260200160405190810160405280929190818152602001828054611a209061370a565b8015611a6d5780601f10611a4257610100808354040283529160200191611a6d565b820191906000526020600020905b815481529060010190602001808311611a5057829003601f168201915b505050505090806003018054611a829061370a565b80601f0160208091040260200160405190810160405280929190818152602001828054611aae9061370a565b8015611afb5780601f10611ad057610100808354040283529160200191611afb565b820191906000526020600020905b815481529060010190602001808311611ade57829003601f168201915b5050505050905084565b600047905090565b60606000600660008473ffffffffffffffffffffffffffffffffffffffff1673ffffffffffffffffffffffffffffffffffffffff16815260200190815260200160002090506000816006018054611b639061370a565b905011611ba5576040517f08c379a0000000000000000000000000000000000000000000000000000000008152600401611b9c90613f3e565b60405180910390fd5b600081600b018054905090506000805b82811015611c3057600084600b018281548110611bd557611bd4613874565b5b9060005260206000200154905084600901600082815260200190815260200160002060050160009054906101000a900460ff1615611c1c578280611c189061382c565b9350505b508080611c289061382c565b915050611bb5565b5060008167ffffffffffffffff811115611c4d57611c4c6130b4565b5b604051908082528060200260200182016040528015611c8657816020015b611c73612ca9565b815260200190600190039081611c6b5790505b5090506000805b84811015611e7757600086600b018281548110611cad57611cac613874565b5b9060005260206000200154905086600901600082815260200190815260200160002060050160009054906101000a900460ff1615611e63578660090160008281526020019081526020016000206040518060c00160405290816000820160009054906101000a900473ffffffffffffffffffffffffffffffffffffffff1673ffffffffffffffffffffffffffffffffffffffff1673ffffffffffffffffffffffffffffffffffffffff168152602001600182015481526020016002820160009054906101000a900473ffffffffffffffffffffffffffffffffffffffff1673ffffffffffffffffffffffffffffffffffffffff1673ffffffffffffffffffffffffffffffffffffffff1681526020016003820160009054906101000a900473ffffffffffffffffffffffffffffffffffffffff1673ffffffffffffffffffffffffffffffffffffffff1673ffffffffffffffffffffffffffffffffffffffff168152602001600482015481526020016005820160009054906101000a900460ff161515151581525050848481518110611e4957611e48613874565b5b60200260200101819052508280611e5f9061382c565b9350505b508080611e6f9061382c565b915050611c8d565b508195505050505050919050565b60606000611e936002612bc3565b90506000611ea16001612bc3565b82611eac9190613f5e565b905060008167ffffffffffffffff811115611eca57611ec96130b4565b5b604051908082528060200260200182016040528015611f0357816020015b611ef0612ca9565b815260200190600190039081611ee85790505b5090506000805b848110156120e25760056000600183611f2391906137f8565b815260200190815260200160002060050160009054906101000a900460ff16156120cf5760056000600183611f5891906137f8565b81526020019081526020016000206040518060c00160405290816000820160009054906101000a900473ffffffffffffffffffffffffffffffffffffffff1673ffffffffffffffffffffffffffffffffffffffff1673ffffffffffffffffffffffffffffffffffffffff168152602001600182015481526020016002820160009054906101000a900473ffffffffffffffffffffffffffffffffffffffff1673ffffffffffffffffffffffffffffffffffffffff1673ffffffffffffffffffffffffffffffffffffffff1681526020016003820160009054906101000a900473ffffffffffffffffffffffffffffffffffffffff1673ffffffffffffffffffffffffffffffffffffffff1673ffffffffffffffffffffffffffffffffffffffff168152602001600482015481526020016005820160009054906101000a900460ff1615151515815250508383815181106120b5576120b4613874565b5b602002602001018190525081806120cb9061382c565b9250505b80806120da9061382c565b915050611f0a565b508194505050505090565b6000600760003373ffffffffffffffffffffffffffffffffffffffff1673ffffffffffffffffffffffffffffffffffffffff168152602001908152602001600020905060008160030180546121419061370a565b905014612183576040517f08c379a000000000000000000000000000000000000000000000000000000000815260040161217a90613fde565b60405180910390fd5b848160000190816121949190613caf565b50838160010190816121a69190613caf565b50828160020190816121b89190613caf565b50818160030190816121ca9190613caf565b505050505050565b6000600354905090565b60066020528060005260406000206000915090508060000180546121ff9061370a565b80601f016020809104026020016040519081016040528092919081815260200182805461222b9061370a565b80156122785780601f1061224d57610100808354040283529160200191612278565b820191906000526020600020905b81548152906001019060200180831161225b57829003601f168201915b50505050509080600101805461228d9061370a565b80601f01602080910402602001604051908101604052809291908181526020018280546122b99061370a565b80156123065780601f106122db57610100808354040283529160200191612306565b820191906000526020600020905b8154815290600101906020018083116122e957829003601f168201915b50505050509080600201805461231b9061370a565b80601f01602080910402602001604051908101604052809291908181526020018280546123479061370a565b80156123945780601f1061236957610100808354040283529160200191612394565b820191906000526020600020905b81548152906001019060200180831161237757829003601f168201915b5050505050908060030180546123a99061370a565b80601f01602080910402602001604051908101604052809291908181526020018280546123d59061370a565b80156124225780601f106123f757610100808354040283529160200191612422565b820191906000526020600020905b81548152906001019060200180831161240557829003601f168201915b5050505050908060040180546124379061370a565b80601f01602080910402602001604051908101604052809291908181526020018280546124639061370a565b80156124b05780601f10612485576101008083540402835291602001916124b0565b820191906000526020600020905b81548152906001019060200180831161249357829003601f168201915b5050505050908060050180546124c59061370a565b80601f01602080910402602001604051908101604052809291908181526020018280546124f19061370a565b801561253e5780601f106125135761010080835404028352916020019161253e565b820191906000526020600020905b81548152906001019060200180831161252157829003601f168201915b5050505050908060060180546125539061370a565b80601f016020809104026020016040519081016040528092919081815260200182805461257f9061370a565b80156125cc5780601f106125a1576101008083540402835291602001916125cc565b820191906000526020600020905b8154815290600101906020018083116125af57829003601f168201915b5050505050908060070180546125e19061370a565b80601f016020809104026020016040519081016040528092919081815260200182805461260d9061370a565b801561265a5780601f1061262f5761010080835404028352916020019161265a565b820191906000526020600020905b81548152906001019060200180831161263d57829003601f168201915b50505050509080600801805461266f9061370a565b80601f016020809104026020016040519081016040528092919081815260200182805461269b9061370a565b80156126e85780601f106126bd576101008083540402835291602001916126e8565b820191906000526020600020905b8154815290600101906020018083116126cb57829003601f168201915b5050505050905089565b600460009054906101000a900473ffffffffffffffffffffffffffffffffffffffff1673ffffffffffffffffffffffffffffffffffffffff163373ffffffffffffffffffffffffffffffffffffffff1614612782576040517f08c379a000000000000000000000000000000000000000000000000000000000815260040161277990614070565b60405180910390fd5b6000479050600460009054906101000a900473ffffffffffffffffffffffffffffffffffffffff1673ffffffffffffffffffffffffffffffffffffffff166108fc829081150290604051600060405180830381858888f193505050501580156127ef573d6000803e3d6000fd5b507f430648de173157e069201c943adb2d4e340e7cf5b27b1b09c9cb852f03d63b568160405161281f9190612fff565b60405180910390a150565b612832612bd1565b60008111612875576040517f08c379a000000000000000000000000000000000000000000000000000000000815260040161286c906138ef565b60405180910390fd5b60035434146128b9576040517f08c379a00000000000000000000000000000000000000000000000000000000081526004016128b09061395b565b60405180910390fd5b8273ffffffffffffffffffffffffffffffffffffffff166323b872dd3330856040518463ffffffff1660e01b81526004016128f69392919061397b565b600060405180830381600087803b15801561291057600080fd5b505af1158015612924573d6000803e3d6000fd5b50505050600460009054906101000a900473ffffffffffffffffffffffffffffffffffffffff1673ffffffffffffffffffffffffffffffffffffffff166108fc6003549081150290604051600060405180830381858888f19350505050158015612992573d6000803e3d6000fd5b5061299d6002612c93565b6040518060c001604052808473ffffffffffffffffffffffffffffffffffffffff1681526020018381526020013373ffffffffffffffffffffffffffffffffffffffff1681526020013073ffffffffffffffffffffffffffffffffffffffff168152602001828152602001600115158152506005600084815260200190815260200160002060008201518160000160006101000a81548173ffffffffffffffffffffffffffffffffffffffff021916908373ffffffffffffffffffffffffffffffffffffffff1602179055506020820151816001015560408201518160020160006101000a81548173ffffffffffffffffffffffffffffffffffffffff021916908373ffffffffffffffffffffffffffffffffffffffff16021790555060608201518160030160006101000a81548173ffffffffffffffffffffffffffffffffffffffff021916908373ffffffffffffffffffffffffffffffffffffffff1602179055506080820151816004015560a08201518160050160006101000a81548160ff0219169083151502179055509050507fa0c6c0d02d86fdacecbaa5fdf5894bab204e31a778250474108540733a9b8d198383333085604051612b659594939291906139b2565b60405180910390a1612b75612c7c565b505050565b6008818051602081018201805184825260208301602085012081835280955050505050506000915054906101000a900473ffffffffffffffffffffffffffffffffffffffff1681565b600081600001549050919050565b600260005403612c16576040517f08c379a0000000000000000000000000000000000000000000000000000000008152600401612c0d906140dc565b60405180910390fd5b6002600081905550565b60008160000154905060008111612c6c576040517f08c379a0000000000000000000000000000000000000000000000000000000008152600401612c6390614148565b60405180910390fd5b6001810382600001819055505050565b6001600081905550565b6000816000018190555050565b6001816000016000828254019250508190555050565b6040518060c00160405280600073ffffffffffffffffffffffffffffffffffffffff16815260200160008152602001600073ffffffffffffffffffffffffffffffffffffffff168152602001600073ffffffffffffffffffffffffffffffffffffffff168152602001600081526020016000151581525090565b508054612d2f9061370a565b6000825580601f10612d415750612d60565b601f016020900490600052602060002090810190612d5f9190612d84565b5b50565b5080546000825590600052602060002090810190612d819190612d84565b50565b5b80821115612d9d576000816000905550600101612d85565b5090565b6000604051905090565b600080fd5b600080fd5b600073ffffffffffffffffffffffffffffffffffffffff82169050919050565b6000612de082612db5565b9050919050565b612df081612dd5565b8114612dfb57600080fd5b50565b600081359050612e0d81612de7565b92915050565b600060208284031215612e2957612e28612dab565b5b6000612e3784828501612dfe565b91505092915050565b600081519050919050565b600082825260208201905092915050565b6000819050602082019050919050565b612e7581612dd5565b82525050565b6000819050919050565b612e8e81612e7b565b82525050565b6000612e9f82612db5565b9050919050565b612eaf81612e94565b82525050565b60008115159050919050565b612eca81612eb5565b82525050565b60c082016000820151612ee66000850182612e6c565b506020820151612ef96020850182612e85565b506040820151612f0c6040850182612ea6565b506060820151612f1f6060850182612ea6565b506080820151612f326080850182612e85565b5060a0820151612f4560a0850182612ec1565b50505050565b6000612f578383612ed0565b60c08301905092915050565b6000602082019050919050565b6000612f7b82612e40565b612f858185612e4b565b9350612f9083612e5c565b8060005b83811015612fc1578151612fa88882612f4b565b9750612fb383612f63565b925050600181019050612f94565b5085935050505092915050565b60006020820190508181036000830152612fe88184612f70565b905092915050565b612ff981612e7b565b82525050565b60006020820190506130146000830184612ff0565b92915050565b61302381612e7b565b811461302e57600080fd5b50565b6000813590506130408161301a565b92915050565b60008060006060848603121561305f5761305e612dab565b5b600061306d86828701612dfe565b935050602061307e86828701613031565b925050604061308f86828701613031565b9150509250925092565b600080fd5b600080fd5b6000601f19601f8301169050919050565b7f4e487b7100000000000000000000000000000000000000000000000000000000600052604160045260246000fd5b6130ec826130a3565b810181811067ffffffffffffffff8211171561310b5761310a6130b4565b5b80604052505050565b600061311e612da1565b905061312a82826130e3565b919050565b600067ffffffffffffffff82111561314a576131496130b4565b5b613153826130a3565b9050602081019050919050565b82818337600083830152505050565b600061318261317d8461312f565b613114565b90508281526020810184848401111561319e5761319d61309e565b5b6131a9848285613160565b509392505050565b600082601f8301126131c6576131c5613099565b5b81356131d684826020860161316f565b91505092915050565b60008060008060008060008060006101208a8c03121561320257613201612dab565b5b60008a013567ffffffffffffffff8111156132205761321f612db0565b5b61322c8c828d016131b1565b99505060208a013567ffffffffffffffff81111561324d5761324c612db0565b5b6132598c828d016131b1565b98505060408a013567ffffffffffffffff81111561327a57613279612db0565b5b6132868c828d016131b1565b97505060608a013567ffffffffffffffff8111156132a7576132a6612db0565b5b6132b38c828d016131b1565b96505060808a013567ffffffffffffffff8111156132d4576132d3612db0565b5b6132e08c828d016131b1565b95505060a08a013567ffffffffffffffff81111561330157613300612db0565b5b61330d8c828d016131b1565b94505060c08a013567ffffffffffffffff81111561332e5761332d612db0565b5b61333a8c828d016131b1565b93505060e08a013567ffffffffffffffff81111561335b5761335a612db0565b5b6133678c828d016131b1565b9250506101008a013567ffffffffffffffff81111561338957613388612db0565b5b6133958c828d016131b1565b9150509295985092959850929598565b600080604083850312156133bc576133bb612dab565b5b60006133ca85828601612dfe565b92505060206133db85828601613031565b9150509250929050565b600081519050919050565b600082825260208201905092915050565b60005b8381101561341f578082015181840152602081019050613404565b60008484015250505050565b6000613436826133e5565b61344081856133f0565b9350613450818560208601613401565b613459816130a3565b840191505092915050565b6000608082019050818103600083015261347e818761342b565b90508181036020830152613492818661342b565b905081810360408301526134a6818561342b565b905081810360608301526134ba818461342b565b905095945050505050565b600080600080608085870312156134df576134de612dab565b5b600085013567ffffffffffffffff8111156134fd576134fc612db0565b5b613509878288016131b1565b945050602085013567ffffffffffffffff81111561352a57613529612db0565b5b613536878288016131b1565b935050604085013567ffffffffffffffff81111561355757613556612db0565b5b613563878288016131b1565b925050606085013567ffffffffffffffff81111561358457613583612db0565b5b613590878288016131b1565b91505092959194509250565b60006101208201905081810360008301526135b7818c61342b565b905081810360208301526135cb818b61342b565b905081810360408301526135df818a61342b565b905081810360608301526135f3818961342b565b90508181036080830152613607818861342b565b905081810360a083015261361b818761342b565b905081810360c083015261362f818661342b565b905081810360e0830152613643818561342b565b9050818103610100830152613658818461342b565b90509a9950505050505050505050565b60006020828403121561367e5761367d612dab565b5b600082013567ffffffffffffffff81111561369c5761369b612db0565b5b6136a8848285016131b1565b91505092915050565b6136ba81612dd5565b82525050565b60006020820190506136d560008301846136b1565b92915050565b7f4e487b7100000000000000000000000000000000000000000000000000000000600052602260045260246000fd5b6000600282049050600182168061372257607f821691505b602082108103613735576137346136db565b5b50919050565b60006020820190508181036000830152613755818461342b565b905092915050565b7f436c69656e742070726f66696c65206e6f7420666f756e640000000000000000600082015250565b60006137936018836133f0565b915061379e8261375d565b602082019050919050565b600060208201905081810360008301526137c281613786565b9050919050565b7f4e487b7100000000000000000000000000000000000000000000000000000000600052601160045260246000fd5b600061380382612e7b565b915061380e83612e7b565b9250828201905080821115613826576138256137c9565b5b92915050565b600061383782612e7b565b91507fffffffffffffffffffffffffffffffffffffffffffffffffffffffffffffffff8203613869576138686137c9565b5b600182019050919050565b7f4e487b7100000000000000000000000000000000000000000000000000000000600052603260045260246000fd5b7f5072696365206d757374206265206174206c6561737420312077656900000000600082015250565b60006138d9601c836133f0565b91506138e4826138a3565b602082019050919050565b60006020820190508181036000830152613908816138cc565b9050919050565b7f4e6f7420656e6f75676820657468657220666f72206c697374696e6720666565600082015250565b60006139456020836133f0565b91506139508261390f565b602082019050919050565b6000602082019050818103600083015261397481613938565b9050919050565b600060608201905061399060008301866136b1565b61399d60208301856136b1565b6139aa6040830184612ff0565b949350505050565b600060a0820190506139c760008301886136b1565b6139d46020830187612ff0565b6139e160408301866136b1565b6139ee60608301856136b1565b6139fb6080830184612ff0565b9695505050505050565b7f4f6e6c7920746865206d61726b6574206f776e65722063616e2072657365742060008201527f70726f66696c6573000000000000000000000000000000000000000000000000602082015250565b6000613a616028836133f0565b9150613a6c82613a05565b604082019050919050565b60006020820190508181036000830152613a9081613a54565b9050919050565b7f4172636869746563742070726f66696c6520616c726561647920657869737473600082015250565b6000613acd6020836133f0565b9150613ad882613a97565b602082019050919050565b60006020820190508181036000830152613afc81613ac0565b9050919050565b60008190508160005260206000209050919050565b60006020601f8301049050919050565b600082821b905092915050565b600060088302613b657fffffffffffffffffffffffffffffffffffffffffffffffffffffffffffffffff82613b28565b613b6f8683613b28565b95508019841693508086168417925050509392505050565b6000819050919050565b6000613bac613ba7613ba284612e7b565b613b87565b612e7b565b9050919050565b6000819050919050565b613bc683613b91565b613bda613bd282613bb3565b848454613b35565b825550505050565b600090565b613bef613be2565b613bfa818484613bbd565b505050565b5b81811015613c1e57613c13600082613be7565b600181019050613c00565b5050565b601f821115613c6357613c3481613b03565b613c3d84613b18565b81016020851015613c4c578190505b613c60613c5885613b18565b830182613bff565b50505b505050565b600082821c905092915050565b6000613c8660001984600802613c68565b1980831691505092915050565b6000613c9f8383613c75565b9150826002028217905092915050565b613cb8826133e5565b67ffffffffffffffff811115613cd157613cd06130b4565b5b613cdb825461370a565b613ce6828285613c22565b600060209050601f831160018114613d195760008415613d07578287015190505b613d118582613c93565b865550613d79565b601f198416613d2786613b03565b60005b82811015613d4f57848901518255600182019150602085019450602081019050613d2a565b86831015613d6c5784890151613d68601f891682613c75565b8355505b6001600288020188555050505b505050505050565b7f4e6f7420656e6f75676820657468657220746f20636f7665722061736b696e6760008201527f2070726963650000000000000000000000000000000000000000000000000000602082015250565b6000613ddd6026836133f0565b9150613de882613d81565b604082019050919050565b60006020820190508181036000830152613e0c81613dd0565b9050919050565b6000613e2e613e29613e2484612db5565b613b87565b612db5565b9050919050565b6000613e4082613e13565b9050919050565b6000613e5282613e35565b9050919050565b613e6281613e47565b82525050565b6000606082019050613e7d60008301866136b1565b613e8a6020830185613e59565b613e976040830184612ff0565b949350505050565b600060a082019050613eb460008301886136b1565b613ec16020830187612ff0565b613ece6040830186613e59565b613edb6060830185613e59565b613ee86080830184612ff0565b9695505050505050565b7f4172636869746563742070726f66696c65206e6f7420666f756e640000000000600082015250565b6000613f28601b836133f0565b9150613f3382613ef2565b602082019050919050565b60006020820190508181036000830152613f5781613f1b565b9050919050565b6000613f6982612e7b565b9150613f7483612e7b565b9250828203905081811115613f8c57613f8b6137c9565b5b92915050565b7f436c69656e742070726f66696c6520616c726561647920657869737473000000600082015250565b6000613fc8601d836133f0565b9150613fd382613f92565b602082019050919050565b60006020820190508181036000830152613ff781613fbb565b9050919050565b7f4f6e6c7920746865206d61726b6574706c616365206f776e65722063616e207760008201527f6974686472617720636f6e74726163742062616c616e63650000000000000000602082015250565b600061405a6038836133f0565b915061406582613ffe565b604082019050919050565b600060208201905081810360008301526140898161404d565b9050919050565b7f5265656e7472616e637947756172643a207265656e7472616e742063616c6c00600082015250565b60006140c6601f836133f0565b91506140d182614090565b602082019050919050565b600060208201905081810360008301526140f5816140b9565b9050919050565b7f436f756e7465723a2064656372656d656e74206f766572666c6f770000000000600082015250565b6000614132601b836133f0565b915061413d826140fc565b602082019050919050565b6000602082019050818103600083015261416181614125565b905091905056fea2646970667358221220591ef70bdec91c047e3b5e5e4edd3589c1333e8b28edcc1aaf7007bc375076b064736f6c63430008130033",
  "immutableReferences": {},
  "source": " // SPDX-License-Identifier: MIT\npragma solidity 0.8.19;\n\nimport \"@openzeppelin/contracts/utils/Counters.sol\";\nimport \"@openzeppelin/contracts/token/ERC721/IERC721.sol\";\nimport \"@openzeppelin/contracts/token/ERC721/ERC721.sol\";\nimport \"@openzeppelin/contracts/security/ReentrancyGuard.sol\";\n\ncontract Marketplace is ReentrancyGuard {\n    using Counters for Counters.Counter;\n    Counters.Counter private _nftsSold;\n    Counters.Counter private _nftCount;\n    uint256 public LISTING_FEE = 0.0001 ether;\n    address payable private _marketOwner;\n    mapping(uint256 => NFT) private _idToNFT;\n    mapping(address => Architect) public architects;\n    mapping(address => Client) public clients;\n    mapping(string => address) public profileNames;\n    \n   \n\n    struct NFT {\n        address nftContract;\n        uint256 tokenId;\n        address payable seller;\n        address payable owner;\n        uint256 price;\n        bool listed;\n    }\n\n    struct Architect {\n        string name;\n        string surname;\n        string country;\n        string education;\n        string experience;\n        string socialMediaUrl;\n        string profileName;\n        string collectionName;\n        string collectionSymbol;\n        mapping(uint256 => NFT) nfts;\n        mapping(uint256 => bool) nftExists;\n        uint256[] nftIds;\n    }\n\n    struct Client {\n        string name;\n        string surname;\n        string country;\n        string profileName;\n        mapping(uint256 => NFT) ownedNFTs;\n        mapping(uint256 => bool) nftOwned;\n    }\n\n    event NFTListed(\n        address nftContract,\n        uint256 tokenId,\n        address seller,\n        address owner,\n        uint256 price\n    );\n    event NFTSold(\n        address nftContract,\n        uint256 tokenId,\n        address seller,\n        address owner,\n        uint256 price\n    );\n\n    event Withdrawn(uint256 amount);\n\n    constructor() {\n        _marketOwner = payable(msg.sender);\n    }\n\n    function resetProfiles() external {\n        require(msg.sender == _marketOwner, \"Only the market owner can reset profiles\");\n        for (uint256 i = 0; i < _nftCount.current(); i++) {\n            delete architects[_idToNFT[i + 1].owner];\n            delete clients[_idToNFT[i + 1].owner];\n        }\n        _nftCount.reset();\n        _nftsSold.reset();\n    }\n\nfunction authenticateUser() public {\n    address userAddress = msg.sender;\n    string memory profileType = \"\";\n\n    // Check if the user is already registered as an architect\n    if (bytes(architects[userAddress].profileName).length > 0) {\n        profileType = \"architect\";\n    }\n    // Check if the user is already registered as a client\n    else if (bytes(clients[userAddress].profileName).length > 0) {\n        profileType = \"client\";\n    }\n\n    // If the user is not registered, no action is needed\n    // They will be prompted to choose their profile type on the front-end\n\n    // Emit an event to notify the front-end about the authentication result\n    emit UserAuthenticated(userAddress, profileType);\n}\n\nevent UserAuthenticated(address indexed userAddress, string profileType);\n\n\n    function createArchitectProfile(\n        string memory _name,\n        string memory _surname,\n        string memory _country,\n        string memory _education,\n        string memory _experience,\n        string memory _socialMediaUrl,\n        string memory _profileName,\n        string memory _collectionName,\n        string memory _collectionSymbol\n    ) public {\n        Architect storage architect = architects[msg.sender];\n        require(bytes(architect.profileName).length == 0, \"Architect profile already exists\");\n\n        architect.name = _name;\n        architect.surname = _surname;\n        architect.country = _country;\n        architect.education = _education;\n        architect.experience = _experience;\n        architect.socialMediaUrl = _socialMediaUrl;\n        architect.profileName = _profileName;\n        architect.collectionName = _collectionName;\n        architect.collectionSymbol = _collectionSymbol;\n    }\n\n    function createClientProfile(\n        string memory _name,\n        string memory _surname,\n        string memory _country,\n        string memory _profileName\n    ) public {\n        Client storage client = clients[msg.sender];\n        require(bytes(client.profileName).length == 0, \"Client profile already exists\");\n\n        client.name = _name;\n        client.surname = _surname;\n        client.country = _country;\n        client.profileName = _profileName;\n    }\n\n  // List the NFT on the marketplace\n  function listNft(address _nftContract, uint256 _tokenId, uint256 _price) public payable nonReentrant {\n    require(_price > 0, \"Price must be at least 1 wei\");\n    require(msg.value == LISTING_FEE, \"Not enough ether for listing fee\");\n\n    IERC721(_nftContract).transferFrom(msg.sender, address(this), _tokenId);\n    _marketOwner.transfer(LISTING_FEE);\n    _nftCount.increment();\n\n    _idToNFT[_tokenId] = NFT(\n      _nftContract,\n      _tokenId, \n      payable(msg.sender),\n      payable(address(this)),\n      _price,\n      true\n    );\n\n    emit NFTListed(_nftContract, _tokenId, msg.sender, address(this), _price);\n  }\n\n  // Buy an NFT\n  function buyNft(address _nftContract, uint256 _tokenId) public payable nonReentrant {\n    NFT storage nft = _idToNFT[_tokenId];\n    require(msg.value >= nft.price, \"Not enough ether to cover asking price\");\n\n    address payable buyer = payable(msg.sender);\n    payable(nft.seller).transfer(msg.value);\n    IERC721(_nftContract).transferFrom(address(this), buyer, nft.tokenId);\n    nft.owner = buyer;\n    nft.listed = false;\n\n    _nftsSold.increment();\n    emit NFTSold(_nftContract, nft.tokenId, nft.seller, buyer, msg.value);\n  }\n\n  // Resell an NFT purchased from the marketplace\n  function resellNft(address _nftContract, uint256 _tokenId, uint256 _price) public payable nonReentrant {\n    require(_price > 0, \"Price must be at least 1 wei\");\n    require(msg.value == LISTING_FEE, \"Not enough ether for listing fee\");\n\n    IERC721(_nftContract).transferFrom(msg.sender, address(this), _tokenId);\n\n    NFT storage nft = _idToNFT[_tokenId];\n    nft.seller = payable(msg.sender);\n    nft.owner = payable(address(this));\n    nft.listed = true;\n    nft.price = _price;\n\n    _nftsSold.decrement();\n    emit NFTListed(_nftContract, _tokenId, msg.sender, address(this), _price);\n  }\n\n function withdrawContractBalance() public {\n    require(msg.sender == _marketOwner, \"Only the marketplace owner can withdraw contract balance\");\n    uint256 balanceToWithdraw = address(this).balance;\n    payable(_marketOwner).transfer(balanceToWithdraw);\n    emit Withdrawn(balanceToWithdraw);\n}\n\n\nfunction getListingFee() public view returns (uint256) {\n    return LISTING_FEE;\n}\n\n\n  function getListedNfts() public view returns (NFT[] memory) {\n    uint256 nftCount = _nftCount.current();\n    uint256 unsoldNftsCount = nftCount - _nftsSold.current();\n\n    NFT[] memory nfts = new NFT[](unsoldNftsCount);\n    uint nftsIndex = 0;\n    for (uint i = 0; i < nftCount; i++) {\n      if (_idToNFT[i + 1].listed) {\n        nfts[nftsIndex] = _idToNFT[i + 1];\n        nftsIndex++;\n      }\n    }\n    return nfts;\n  }\n\n  function getMyNfts() public view returns (NFT[] memory) {\n    uint nftCount = _nftCount.current();\n    uint myNftCount = 0;\n    for (uint i = 0; i < nftCount; i++) {\n      if (_idToNFT[i + 1].owner == msg.sender) {\n        myNftCount++;\n      }\n    }\n\n    NFT[] memory nfts = new NFT[](myNftCount);\n    uint nftsIndex = 0;\n    for (uint i = 0; i < nftCount; i++) {\n      if (_idToNFT[i + 1].owner == msg.sender) {\n        nfts[nftsIndex] = _idToNFT[i + 1];\n        nftsIndex++;\n      }\n    }\n    return nfts;\n  }\n\n  function getMyListedNfts() public view returns (NFT[] memory) {\n    uint nftCount = _nftCount.current();\n    uint myListedNftCount = 0;\n    for (uint i = 0; i < nftCount; i++) {\n      if (_idToNFT[i + 1].seller == msg.sender && _idToNFT[i + 1].listed) {\n        myListedNftCount++;\n      }\n    }\n\n    NFT[] memory nfts = new NFT[](myListedNftCount);\n    uint nftsIndex = 0;\n    for (uint i = 0; i < nftCount; i++) {\n      if (_idToNFT[i + 1].seller == msg.sender && _idToNFT[i + 1].listed) {\n        nfts[nftsIndex] = _idToNFT[i + 1];\n        nftsIndex++;\n      }\n    }\n    return nfts;\n  }\n\n function getClientNfts(address clientAddress) public view returns (NFT[] memory) {\n        Client storage client = clients[clientAddress];\n        require(bytes(client.profileName).length > 0, \"Client profile not found\");\n\n        uint256 nftCount = _nftCount.current();\n        uint256 clientNftCount = 0;\n        for (uint256 i = 0; i < nftCount; i++) {\n            if (_idToNFT[i + 1].owner == clientAddress) {\n                clientNftCount++;\n            }\n        }\n\n        NFT[] memory nfts = new NFT[](clientNftCount);\n        uint256 nftsIndex = 0;\n        for (uint256 i = 0; i < nftCount; i++) {\n            if (_idToNFT[i + 1].owner == clientAddress) {\n                nfts[nftsIndex] = _idToNFT[i + 1];\n                nftsIndex++;\n            }\n        }\n        return nfts;\n    }\n\n    function getClientListedNfts(address clientAddress) public view returns (NFT[] memory) {\n        Architect storage architect = architects[clientAddress];\n        require(bytes(architect.profileName).length > 0, \"Architect profile not found\");\n\n        uint256 nftCount = architect.nftIds.length;\n        uint256 clientListedNftCount = 0;\n        for (uint256 i = 0; i < nftCount; i++) {\n            uint256 tokenId = architect.nftIds[i];\n            if (architect.nfts[tokenId].listed) {\n                clientListedNftCount++;\n            }\n        }\n\n        NFT[] memory nfts = new NFT[](clientListedNftCount);\n        uint256 nftsIndex = 0;\n        for (uint256 i = 0; i < nftCount; i++) {\n            uint256 tokenId = architect.nftIds[i];\n            if (architect.nfts[tokenId].listed) {\n                nfts[nftsIndex] = architect.nfts[tokenId];\n                nftsIndex++;\n            }\n        }\n        return nfts;\n    }\n    function getContractBalance() public view returns (uint256) {\n        return address(this).balance;\n    }\n}\n\n",
  "sourcePath": "/home/benji/dev/CoursAlyra/nft-marketplace/contracts/ethereum/Marketplace.sol",
  "compiler": {
    "name": "solc",
    "version": "0.8.19+commit.7dd6d404.Emscripten.clang"
  },
  "schemaVersion": "3.4.14",
  "updatedAt": "2023-07-25T11:50:22.764Z",
  "networkType": "ethereum",
  "devdoc": {
    "kind": "dev",
    "methods": {},
    "version": 1
  },
  "userdoc": {
    "kind": "user",
    "methods": {},
    "version": 1
  }
}